{
  "contractName": "CStoryNFT",
  "abi": [
    {
      "inputs": [
        {
          "internalType": "string",
          "name": "_name",
          "type": "string"
        },
        {
          "internalType": "string",
          "name": "_symbol",
          "type": "string"
        }
      ],
      "stateMutability": "nonpayable",
      "type": "constructor"
    },
    {
      "anonymous": false,
      "inputs": [
        {
          "indexed": true,
          "internalType": "address",
          "name": "owner",
          "type": "address"
        },
        {
          "indexed": true,
          "internalType": "address",
          "name": "approved",
          "type": "address"
        },
        {
          "indexed": true,
          "internalType": "uint256",
          "name": "tokenId",
          "type": "uint256"
        }
      ],
      "name": "Approval",
      "type": "event"
    },
    {
      "anonymous": false,
      "inputs": [
        {
          "indexed": true,
          "internalType": "address",
          "name": "owner",
          "type": "address"
        },
        {
          "indexed": true,
          "internalType": "address",
          "name": "operator",
          "type": "address"
        },
        {
          "indexed": false,
          "internalType": "bool",
          "name": "approved",
          "type": "bool"
        }
      ],
      "name": "ApprovalForAll",
      "type": "event"
    },
    {
      "anonymous": false,
      "inputs": [
        {
          "indexed": true,
          "internalType": "address",
          "name": "previousOwner",
          "type": "address"
        },
        {
          "indexed": true,
          "internalType": "address",
          "name": "newOwner",
          "type": "address"
        }
      ],
      "name": "OwnershipTransferred",
      "type": "event"
    },
    {
      "anonymous": false,
      "inputs": [
        {
          "indexed": true,
          "internalType": "address",
          "name": "from",
          "type": "address"
        },
        {
          "indexed": true,
          "internalType": "address",
          "name": "to",
          "type": "address"
        },
        {
          "indexed": true,
          "internalType": "uint256",
          "name": "tokenId",
          "type": "uint256"
        }
      ],
      "name": "Transfer",
      "type": "event"
    },
    {
      "anonymous": false,
      "inputs": [
        {
          "indexed": true,
          "internalType": "address",
          "name": "owner",
          "type": "address"
        },
        {
          "indexed": false,
          "internalType": "uint256",
          "name": "id",
          "type": "uint256"
        }
      ],
      "name": "newStoryN",
      "type": "event"
    },
    {
      "inputs": [
        {
          "internalType": "uint256",
          "name": "",
          "type": "uint256"
        }
      ],
      "name": "TrajesNFT",
      "outputs": [
        {
          "internalType": "string",
          "name": "Name",
          "type": "string"
        },
        {
          "internalType": "uint256",
          "name": "id",
          "type": "uint256"
        },
        {
          "internalType": "uint256",
          "name": "Str",
          "type": "uint256"
        },
        {
          "internalType": "uint256",
          "name": "Dex",
          "type": "uint256"
        },
        {
          "internalType": "uint256",
          "name": "Luk",
          "type": "uint256"
        },
        {
          "internalType": "uint256",
          "name": "Int",
          "type": "uint256"
        },
        {
          "internalType": "uint256",
          "name": "Wattk",
          "type": "uint256"
        },
        {
          "internalType": "uint256",
          "name": "Mattk",
          "type": "uint256"
        },
        {
          "internalType": "string",
          "name": "Type",
          "type": "string"
        },
        {
          "internalType": "string",
          "name": "Class",
          "type": "string"
        },
        {
          "internalType": "uint256",
          "name": "level",
          "type": "uint256"
        },
        {
          "internalType": "uint256",
          "name": "rarity",
          "type": "uint256"
        }
      ],
      "stateMutability": "view",
      "type": "function",
      "constant": true
    },
    {
      "inputs": [
        {
          "internalType": "address",
          "name": "to",
          "type": "address"
        },
        {
          "internalType": "uint256",
          "name": "tokenId",
          "type": "uint256"
        }
      ],
      "name": "approve",
      "outputs": [],
      "stateMutability": "nonpayable",
      "type": "function"
    },
    {
      "inputs": [
        {
          "internalType": "address",
          "name": "owner",
          "type": "address"
        }
      ],
      "name": "balanceOf",
      "outputs": [
        {
          "internalType": "uint256",
          "name": "",
          "type": "uint256"
        }
      ],
      "stateMutability": "view",
      "type": "function",
      "constant": true
    },
    {
      "inputs": [],
      "name": "buyer",
      "outputs": [
        {
          "internalType": "address payable",
          "name": "",
          "type": "address"
        }
      ],
      "stateMutability": "view",
      "type": "function",
      "constant": true
    },
    {
      "inputs": [],
      "name": "cost",
      "outputs": [
        {
          "internalType": "uint256",
          "name": "",
          "type": "uint256"
        }
      ],
      "stateMutability": "view",
      "type": "function",
      "constant": true
    },
    {
      "inputs": [
        {
          "internalType": "uint256",
          "name": "tokenId",
          "type": "uint256"
        }
      ],
      "name": "getApproved",
      "outputs": [
        {
          "internalType": "address",
          "name": "",
          "type": "address"
        }
      ],
      "stateMutability": "view",
      "type": "function",
      "constant": true
    },
    {
      "inputs": [
        {
          "internalType": "address",
          "name": "owner",
          "type": "address"
        },
        {
          "internalType": "address",
          "name": "operator",
          "type": "address"
        }
      ],
      "name": "isApprovedForAll",
      "outputs": [
        {
          "internalType": "bool",
          "name": "",
          "type": "bool"
        }
      ],
      "stateMutability": "view",
      "type": "function",
      "constant": true
    },
    {
      "inputs": [],
      "name": "name",
      "outputs": [
        {
          "internalType": "string",
          "name": "",
          "type": "string"
        }
      ],
      "stateMutability": "view",
      "type": "function",
      "constant": true
    },
    {
      "inputs": [],
      "name": "owner",
      "outputs": [
        {
          "internalType": "address",
          "name": "",
          "type": "address"
        }
      ],
      "stateMutability": "view",
      "type": "function",
      "constant": true
    },
    {
      "inputs": [
        {
          "internalType": "uint256",
          "name": "tokenId",
          "type": "uint256"
        }
      ],
      "name": "ownerOf",
      "outputs": [
        {
          "internalType": "address",
          "name": "",
          "type": "address"
        }
      ],
      "stateMutability": "view",
      "type": "function",
      "constant": true
    },
    {
      "inputs": [],
      "name": "renounceOwnership",
      "outputs": [],
      "stateMutability": "nonpayable",
      "type": "function"
    },
    {
      "inputs": [
        {
          "internalType": "address",
          "name": "from",
          "type": "address"
        },
        {
          "internalType": "address",
          "name": "to",
          "type": "address"
        },
        {
          "internalType": "uint256",
          "name": "tokenId",
          "type": "uint256"
        }
      ],
      "name": "safeTransferFrom",
      "outputs": [],
      "stateMutability": "nonpayable",
      "type": "function"
    },
    {
      "inputs": [
        {
          "internalType": "address",
          "name": "from",
          "type": "address"
        },
        {
          "internalType": "address",
          "name": "to",
          "type": "address"
        },
        {
          "internalType": "uint256",
          "name": "tokenId",
          "type": "uint256"
        },
        {
          "internalType": "bytes",
          "name": "_data",
          "type": "bytes"
        }
      ],
      "name": "safeTransferFrom",
      "outputs": [],
      "stateMutability": "nonpayable",
      "type": "function"
    },
    {
      "inputs": [
        {
          "internalType": "address",
          "name": "operator",
          "type": "address"
        },
        {
          "internalType": "bool",
          "name": "approved",
          "type": "bool"
        }
      ],
      "name": "setApprovalForAll",
      "outputs": [],
      "stateMutability": "nonpayable",
      "type": "function"
    },
    {
      "inputs": [
        {
          "internalType": "bytes4",
          "name": "interfaceId",
          "type": "bytes4"
        }
      ],
      "name": "supportsInterface",
      "outputs": [
        {
          "internalType": "bool",
          "name": "",
          "type": "bool"
        }
      ],
      "stateMutability": "view",
      "type": "function",
      "constant": true
    },
    {
      "inputs": [],
      "name": "symbol",
      "outputs": [
        {
          "internalType": "string",
          "name": "",
          "type": "string"
        }
      ],
      "stateMutability": "view",
      "type": "function",
      "constant": true
    },
    {
      "inputs": [
        {
          "internalType": "uint256",
          "name": "tokenId",
          "type": "uint256"
        }
      ],
      "name": "tokenURI",
      "outputs": [
        {
          "internalType": "string",
          "name": "",
          "type": "string"
        }
      ],
      "stateMutability": "view",
      "type": "function",
      "constant": true
    },
    {
      "inputs": [
        {
          "internalType": "address",
          "name": "from",
          "type": "address"
        },
        {
          "internalType": "address",
          "name": "to",
          "type": "address"
        },
        {
          "internalType": "uint256",
          "name": "tokenId",
          "type": "uint256"
        }
      ],
      "name": "transferFrom",
      "outputs": [],
      "stateMutability": "nonpayable",
      "type": "function"
    },
    {
      "inputs": [
        {
          "internalType": "address",
          "name": "newOwner",
          "type": "address"
        }
      ],
      "name": "transferOwnership",
      "outputs": [],
      "stateMutability": "nonpayable",
      "type": "function"
    },
    {
      "inputs": [],
      "name": "withdraw",
      "outputs": [],
      "stateMutability": "payable",
      "type": "function",
      "payable": true
    },
    {
      "inputs": [
        {
          "internalType": "string",
          "name": "_name",
          "type": "string"
        },
        {
          "internalType": "uint256",
          "name": "_Str",
          "type": "uint256"
        },
        {
          "internalType": "uint256",
          "name": "_Dex",
          "type": "uint256"
        },
        {
          "internalType": "uint256",
          "name": "_Luk",
          "type": "uint256"
        },
        {
          "internalType": "uint256",
          "name": "_Int",
          "type": "uint256"
        },
        {
          "internalType": "uint256",
          "name": "_Wattk",
          "type": "uint256"
        },
        {
          "internalType": "uint256",
          "name": "_Mattk",
          "type": "uint256"
        },
        {
          "internalType": "string",
          "name": "_Type",
          "type": "string"
        },
        {
          "internalType": "string",
          "name": "_Class",
          "type": "string"
        }
      ],
      "name": "createRandomNFT",
      "outputs": [],
      "stateMutability": "payable",
      "type": "function",
      "payable": true
    },
    {
      "inputs": [],
      "name": "getTrajeNFT",
      "outputs": [
        {
          "components": [
            {
              "internalType": "string",
              "name": "Name",
              "type": "string"
            },
            {
              "internalType": "uint256",
              "name": "id",
              "type": "uint256"
            },
            {
              "internalType": "uint256",
              "name": "Str",
              "type": "uint256"
            },
            {
              "internalType": "uint256",
              "name": "Dex",
              "type": "uint256"
            },
            {
              "internalType": "uint256",
              "name": "Luk",
              "type": "uint256"
            },
            {
              "internalType": "uint256",
              "name": "Int",
              "type": "uint256"
            },
            {
              "internalType": "uint256",
              "name": "Wattk",
              "type": "uint256"
            },
            {
              "internalType": "uint256",
              "name": "Mattk",
              "type": "uint256"
            },
            {
              "internalType": "string",
              "name": "Type",
              "type": "string"
            },
            {
              "internalType": "string",
              "name": "Class",
              "type": "string"
            },
            {
              "internalType": "uint256",
              "name": "level",
              "type": "uint256"
            },
            {
              "internalType": "uint256",
              "name": "rarity",
              "type": "uint256"
            }
          ],
          "internalType": "struct CStoryNFT.TrajeNFT[]",
          "name": "",
          "type": "tuple[]"
        }
      ],
      "stateMutability": "view",
      "type": "function",
      "constant": true
    },
    {
      "inputs": [
        {
          "internalType": "address",
          "name": "_owner",
          "type": "address"
        }
      ],
      "name": "getOwnerTrajeNFT",
      "outputs": [
        {
          "components": [
            {
              "internalType": "string",
              "name": "Name",
              "type": "string"
            },
            {
              "internalType": "uint256",
              "name": "id",
              "type": "uint256"
            },
            {
              "internalType": "uint256",
              "name": "Str",
              "type": "uint256"
            },
            {
              "internalType": "uint256",
              "name": "Dex",
              "type": "uint256"
            },
            {
              "internalType": "uint256",
              "name": "Luk",
              "type": "uint256"
            },
            {
              "internalType": "uint256",
              "name": "Int",
              "type": "uint256"
            },
            {
              "internalType": "uint256",
              "name": "Wattk",
              "type": "uint256"
            },
            {
              "internalType": "uint256",
              "name": "Mattk",
              "type": "uint256"
            },
            {
              "internalType": "string",
              "name": "Type",
              "type": "string"
            },
            {
              "internalType": "string",
              "name": "Class",
              "type": "string"
            },
            {
              "internalType": "uint256",
              "name": "level",
              "type": "uint256"
            },
            {
              "internalType": "uint256",
              "name": "rarity",
              "type": "uint256"
            }
          ],
          "internalType": "struct CStoryNFT.TrajeNFT[]",
          "name": "",
          "type": "tuple[]"
        }
      ],
      "stateMutability": "view",
      "type": "function",
      "constant": true
    }
  ],
  "bytecode": "0x6080604052666a94d74f4300006008553480156200001c57600080fd5b506040516200434f3803806200434f8339818101604052810190620000429190620003bb565b818181600090805190602001906200005c9291906200016e565b508060019080519060200190620000759291906200016e565b505050620000986200008c620000a060201b60201c565b620000a860201b60201c565b5050620004a5565b600033905090565b6000600660009054906101000a900473ffffffffffffffffffffffffffffffffffffffff16905081600660006101000a81548173ffffffffffffffffffffffffffffffffffffffff021916908373ffffffffffffffffffffffffffffffffffffffff1602179055508173ffffffffffffffffffffffffffffffffffffffff168173ffffffffffffffffffffffffffffffffffffffff167f8be0079c531659141344cd1fd0a4f28419497f9722a3daafe3b4186f6b6457e060405160405180910390a35050565b8280546200017c906200046f565b90600052602060002090601f016020900481019282620001a05760008555620001ec565b82601f10620001bb57805160ff1916838001178555620001ec565b82800160010185558215620001ec579182015b82811115620001eb578251825591602001919060010190620001ce565b5b509050620001fb9190620001ff565b5090565b5b808211156200021a57600081600090555060010162000200565b5090565b6000604051905090565b600080fd5b600080fd5b600080fd5b600080fd5b6000601f19601f8301169050919050565b7f4e487b7100000000000000000000000000000000000000000000000000000000600052604160045260246000fd5b62000287826200023c565b810181811067ffffffffffffffff82111715620002a957620002a86200024d565b5b80604052505050565b6000620002be6200021e565b9050620002cc82826200027c565b919050565b600067ffffffffffffffff821115620002ef57620002ee6200024d565b5b620002fa826200023c565b9050602081019050919050565b60005b83811015620003275780820151818401526020810190506200030a565b8381111562000337576000848401525b50505050565b6000620003546200034e84620002d1565b620002b2565b90508281526020810184848401111562000373576200037262000237565b5b6200038084828562000307565b509392505050565b600082601f830112620003a0576200039f62000232565b5b8151620003b28482602086016200033d565b91505092915050565b60008060408385031215620003d557620003d462000228565b5b600083015167ffffffffffffffff811115620003f657620003f56200022d565b5b620004048582860162000388565b925050602083015167ffffffffffffffff8111156200042857620004276200022d565b5b620004368582860162000388565b9150509250929050565b7f4e487b7100000000000000000000000000000000000000000000000000000000600052602260045260246000fd5b600060028204905060018216806200048857607f821691505b602082108114156200049f576200049e62000440565b5b50919050565b613e9a80620004b56000396000f3fe6080604052600436106101405760003560e01c80635c762302116100b657806395d89b411161006f57806395d89b411461044d578063a22cb46514610478578063b88d4fde146104a1578063c87b56dd146104ca578063e985e9c514610507578063f2fde38b1461054457610140565b80635c7623021461031e5780636352211e1461036657806370a08231146103a3578063715018a6146103e05780637150d8ae146103f75780638da5cb5b1461042257610140565b806313faede61161010857806313faede61461025057806323b872dd1461027b578063245cd930146102a45780633ccfd60b146102cf57806342842e0e146102d95780634d532c9c1461030257610140565b806301ffc9a71461014557806306fdde0314610182578063081812fc146101ad578063095ea7b3146101ea578063119e0bd814610213575b600080fd5b34801561015157600080fd5b5061016c60048036038101906101679190612771565b61056d565b60405161017991906127b9565b60405180910390f35b34801561018e57600080fd5b5061019761064f565b6040516101a4919061286d565b60405180910390f35b3480156101b957600080fd5b506101d460048036038101906101cf91906128c5565b6106e1565b6040516101e19190612933565b60405180910390f35b3480156101f657600080fd5b50610211600480360381019061020c919061297a565b610766565b005b34801561021f57600080fd5b5061023a600480360381019061023591906129ba565b61087e565b6040516102479190612c14565b60405180910390f35b34801561025c57600080fd5b50610265610bb6565b6040516102729190612c45565b60405180910390f35b34801561028757600080fd5b506102a2600480360381019061029d9190612c60565b610bbc565b005b3480156102b057600080fd5b506102b9610c1c565b6040516102c69190612c14565b60405180910390f35b6102d7610e8c565b005b3480156102e557600080fd5b5061030060048036038101906102fb9190612c60565b610f5e565b005b61031c60048036038101906103179190612de8565b610f7e565b005b34801561032a57600080fd5b50610345600480360381019061034091906128c5565b610f9a565b60405161035d9c9b9a99989796959493929190612f06565b60405180910390f35b34801561037257600080fd5b5061038d600480360381019061038891906128c5565b6111a2565b60405161039a9190612933565b60405180910390f35b3480156103af57600080fd5b506103ca60048036038101906103c591906129ba565b611254565b6040516103d79190612c45565b60405180910390f35b3480156103ec57600080fd5b506103f561130c565b005b34801561040357600080fd5b5061040c611394565b6040516104199190612ff6565b60405180910390f35b34801561042e57600080fd5b506104376113ba565b6040516104449190612933565b60405180910390f35b34801561045957600080fd5b506104626113e4565b60405161046f919061286d565b60405180910390f35b34801561048457600080fd5b5061049f600480360381019061049a919061303d565b611476565b005b3480156104ad57600080fd5b506104c860048036038101906104c3919061311e565b61148c565b005b3480156104d657600080fd5b506104f160048036038101906104ec91906128c5565b6114ee565b6040516104fe919061286d565b60405180910390f35b34801561051357600080fd5b5061052e600480360381019061052991906131a1565b611595565b60405161053b91906127b9565b60405180910390f35b34801561055057600080fd5b5061056b600480360381019061056691906129ba565b611629565b005b60007f80ac58cd000000000000000000000000000000000000000000000000000000007bffffffffffffffffffffffffffffffffffffffffffffffffffffffff1916827bffffffffffffffffffffffffffffffffffffffffffffffffffffffff1916148061063857507f5b5e139f000000000000000000000000000000000000000000000000000000007bffffffffffffffffffffffffffffffffffffffffffffffffffffffff1916827bffffffffffffffffffffffffffffffffffffffffffffffffffffffff1916145b80610648575061064782611721565b5b9050919050565b60606000805461065e90613210565b80601f016020809104026020016040519081016040528092919081815260200182805461068a90613210565b80156106d75780601f106106ac576101008083540402835291602001916106d7565b820191906000526020600020905b8154815290600101906020018083116106ba57829003601f168201915b5050505050905090565b60006106ec8261178b565b61072b576040517f08c379a0000000000000000000000000000000000000000000000000000000008152600401610722906132b4565b60405180910390fd5b6004600083815260200190815260200160002060009054906101000a900473ffffffffffffffffffffffffffffffffffffffff169050919050565b6000610771826111a2565b90508073ffffffffffffffffffffffffffffffffffffffff168373ffffffffffffffffffffffffffffffffffffffff1614156107e2576040517f08c379a00000000000000000000000000000000000000000000000000000000081526004016107d990613346565b60405180910390fd5b8073ffffffffffffffffffffffffffffffffffffffff166108016117f7565b73ffffffffffffffffffffffffffffffffffffffff161480610830575061082f8161082a6117f7565b611595565b5b61086f576040517f08c379a0000000000000000000000000000000000000000000000000000000008152600401610866906133d8565b60405180910390fd5b61087983836117ff565b505050565b6060600061088b83611254565b67ffffffffffffffff8111156108a4576108a3612cbd565b5b6040519080825280602002602001820160405280156108dd57816020015b6108ca612601565b8152602001906001900390816108c25790505b5090506000805b600a80549050811015610bab578473ffffffffffffffffffffffffffffffffffffffff16610911826111a2565b73ffffffffffffffffffffffffffffffffffffffff161415610b9857600a8181548110610941576109406133f8565b5b90600052602060002090600c02016040518061018001604052908160008201805461096b90613210565b80601f016020809104026020016040519081016040528092919081815260200182805461099790613210565b80156109e45780601f106109b9576101008083540402835291602001916109e4565b820191906000526020600020905b8154815290600101906020018083116109c757829003601f168201915b5050505050815260200160018201548152602001600282015481526020016003820154815260200160048201548152602001600582015481526020016006820154815260200160078201548152602001600882018054610a4390613210565b80601f0160208091040260200160405190810160405280929190818152602001828054610a6f90613210565b8015610abc5780601f10610a9157610100808354040283529160200191610abc565b820191906000526020600020905b815481529060010190602001808311610a9f57829003601f168201915b50505050508152602001600982018054610ad590613210565b80601f0160208091040260200160405190810160405280929190818152602001828054610b0190613210565b8015610b4e5780601f10610b2357610100808354040283529160200191610b4e565b820191906000526020600020905b815481529060010190602001808311610b3157829003601f168201915b50505050508152602001600a8201548152602001600b82015481525050838381518110610b7e57610b7d6133f8565b5b60200260200101819052508180610b9490613456565b9250505b8080610ba390613456565b9150506108e4565b508192505050919050565b60085481565b610bcd610bc76117f7565b826118b8565b610c0c576040517f08c379a0000000000000000000000000000000000000000000000000000000008152600401610c0390613511565b60405180910390fd5b610c17838383611996565b505050565b6060600a805480602002602001604051908101604052809291908181526020016000905b82821015610e8357838290600052602060002090600c020160405180610180016040529081600082018054610c7490613210565b80601f0160208091040260200160405190810160405280929190818152602001828054610ca090613210565b8015610ced5780601f10610cc257610100808354040283529160200191610ced565b820191906000526020600020905b815481529060010190602001808311610cd057829003601f168201915b5050505050815260200160018201548152602001600282015481526020016003820154815260200160048201548152602001600582015481526020016006820154815260200160078201548152602001600882018054610d4c90613210565b80601f0160208091040260200160405190810160405280929190818152602001828054610d7890613210565b8015610dc55780601f10610d9a57610100808354040283529160200191610dc5565b820191906000526020600020905b815481529060010190602001808311610da857829003601f168201915b50505050508152602001600982018054610dde90613210565b80601f0160208091040260200160405190810160405280929190818152602001828054610e0a90613210565b8015610e575780601f10610e2c57610100808354040283529160200191610e57565b820191906000526020600020905b815481529060010190602001808311610e3a57829003601f168201915b50505050508152602001600a8201548152602001600b8201548152505081526020019060010190610c40565b50505050905090565b610e946117f7565b73ffffffffffffffffffffffffffffffffffffffff16610eb26113ba565b73ffffffffffffffffffffffffffffffffffffffff1614610f08576040517f08c379a0000000000000000000000000000000000000000000000000000000008152600401610eff9061357d565b60405180910390fd5b6000610f126113ba565b90508073ffffffffffffffffffffffffffffffffffffffff166108fc479081150290604051600060405180830381858888f19350505050158015610f5a573d6000803e3d6000fd5b5050565b610f798383836040518060200160405280600081525061148c565b505050565b610f8f898989898989898989611bf2565b505050505050505050565b600a8181548110610faa57600080fd5b90600052602060002090600c0201600091509050806000018054610fcd90613210565b80601f0160208091040260200160405190810160405280929190818152602001828054610ff990613210565b80156110465780601f1061101b57610100808354040283529160200191611046565b820191906000526020600020905b81548152906001019060200180831161102957829003601f168201915b50505050509080600101549080600201549080600301549080600401549080600501549080600601549080600701549080600801805461108590613210565b80601f01602080910402602001604051908101604052809291908181526020018280546110b190613210565b80156110fe5780601f106110d3576101008083540402835291602001916110fe565b820191906000526020600020905b8154815290600101906020018083116110e157829003601f168201915b50505050509080600901805461111390613210565b80601f016020809104026020016040519081016040528092919081815260200182805461113f90613210565b801561118c5780601f106111615761010080835404028352916020019161118c565b820191906000526020600020905b81548152906001019060200180831161116f57829003601f168201915b50505050509080600a01549080600b015490508c565b6000806002600084815260200190815260200160002060009054906101000a900473ffffffffffffffffffffffffffffffffffffffff169050600073ffffffffffffffffffffffffffffffffffffffff168173ffffffffffffffffffffffffffffffffffffffff16141561124b576040517f08c379a00000000000000000000000000000000000000000000000000000000081526004016112429061360f565b60405180910390fd5b80915050919050565b60008073ffffffffffffffffffffffffffffffffffffffff168273ffffffffffffffffffffffffffffffffffffffff1614156112c5576040517f08c379a00000000000000000000000000000000000000000000000000000000081526004016112bc906136a1565b60405180910390fd5b600360008373ffffffffffffffffffffffffffffffffffffffff1673ffffffffffffffffffffffffffffffffffffffff168152602001908152602001600020549050919050565b6113146117f7565b73ffffffffffffffffffffffffffffffffffffffff166113326113ba565b73ffffffffffffffffffffffffffffffffffffffff1614611388576040517f08c379a000000000000000000000000000000000000000000000000000000000815260040161137f9061357d565b60405180910390fd5b6113926000611dce565b565b600960009054906101000a900473ffffffffffffffffffffffffffffffffffffffff1681565b6000600660009054906101000a900473ffffffffffffffffffffffffffffffffffffffff16905090565b6060600180546113f390613210565b80601f016020809104026020016040519081016040528092919081815260200182805461141f90613210565b801561146c5780601f106114415761010080835404028352916020019161146c565b820191906000526020600020905b81548152906001019060200180831161144f57829003601f168201915b5050505050905090565b6114886114816117f7565b8383611e94565b5050565b61149d6114976117f7565b836118b8565b6114dc576040517f08c379a00000000000000000000000000000000000000000000000000000000081526004016114d390613511565b60405180910390fd5b6114e884848484612001565b50505050565b60606114f98261178b565b611538576040517f08c379a000000000000000000000000000000000000000000000000000000000815260040161152f90613733565b60405180910390fd5b600061154261205d565b90506000815111611562576040518060200160405280600081525061158d565b8061156c84612074565b60405160200161157d92919061378f565b6040516020818303038152906040525b915050919050565b6000600560008473ffffffffffffffffffffffffffffffffffffffff1673ffffffffffffffffffffffffffffffffffffffff16815260200190815260200160002060008373ffffffffffffffffffffffffffffffffffffffff1673ffffffffffffffffffffffffffffffffffffffff16815260200190815260200160002060009054906101000a900460ff16905092915050565b6116316117f7565b73ffffffffffffffffffffffffffffffffffffffff1661164f6113ba565b73ffffffffffffffffffffffffffffffffffffffff16146116a5576040517f08c379a000000000000000000000000000000000000000000000000000000000815260040161169c9061357d565b60405180910390fd5b600073ffffffffffffffffffffffffffffffffffffffff168173ffffffffffffffffffffffffffffffffffffffff161415611715576040517f08c379a000000000000000000000000000000000000000000000000000000000815260040161170c90613825565b60405180910390fd5b61171e81611dce565b50565b60007f01ffc9a7000000000000000000000000000000000000000000000000000000007bffffffffffffffffffffffffffffffffffffffffffffffffffffffff1916827bffffffffffffffffffffffffffffffffffffffffffffffffffffffff1916149050919050565b60008073ffffffffffffffffffffffffffffffffffffffff166002600084815260200190815260200160002060009054906101000a900473ffffffffffffffffffffffffffffffffffffffff1673ffffffffffffffffffffffffffffffffffffffff1614159050919050565b600033905090565b816004600083815260200190815260200160002060006101000a81548173ffffffffffffffffffffffffffffffffffffffff021916908373ffffffffffffffffffffffffffffffffffffffff160217905550808273ffffffffffffffffffffffffffffffffffffffff16611872836111a2565b73ffffffffffffffffffffffffffffffffffffffff167f8c5be1e5ebec7d5bd14f71427d1e84f3dd0314c0f7b2291e5b200ac8c7c3b92560405160405180910390a45050565b60006118c38261178b565b611902576040517f08c379a00000000000000000000000000000000000000000000000000000000081526004016118f9906138b7565b60405180910390fd5b600061190d836111a2565b90508073ffffffffffffffffffffffffffffffffffffffff168473ffffffffffffffffffffffffffffffffffffffff16148061197c57508373ffffffffffffffffffffffffffffffffffffffff16611964846106e1565b73ffffffffffffffffffffffffffffffffffffffff16145b8061198d575061198c8185611595565b5b91505092915050565b8273ffffffffffffffffffffffffffffffffffffffff166119b6826111a2565b73ffffffffffffffffffffffffffffffffffffffff1614611a0c576040517f08c379a0000000000000000000000000000000000000000000000000000000008152600401611a0390613949565b60405180910390fd5b600073ffffffffffffffffffffffffffffffffffffffff168273ffffffffffffffffffffffffffffffffffffffff161415611a7c576040517f08c379a0000000000000000000000000000000000000000000000000000000008152600401611a73906139db565b60405180910390fd5b611a878383836121d5565b611a926000826117ff565b6001600360008573ffffffffffffffffffffffffffffffffffffffff1673ffffffffffffffffffffffffffffffffffffffff1681526020019081526020016000206000828254611ae291906139fb565b925050819055506001600360008473ffffffffffffffffffffffffffffffffffffffff1673ffffffffffffffffffffffffffffffffffffffff1681526020019081526020016000206000828254611b399190613a2f565b92505081905550816002600083815260200190815260200160002060006101000a81548173ffffffffffffffffffffffffffffffffffffffff021916908373ffffffffffffffffffffffffffffffffffffffff160217905550808273ffffffffffffffffffffffffffffffffffffffff168473ffffffffffffffffffffffffffffffffffffffff167fddf252ad1be2c89b69c2b068fc378daa952ba7f163c4a11628f55a4df523b3ef60405160405180910390a4505050565b6000611bfe60646121da565b90506000611c0d6127106121da565b905060006040518061018001604052808d81526020018381526020018c81526020018b81526020018a8152602001898152602001888152602001878152602001868152602001858152602001600181526020018460ff168152509050600a8190806001815401808255809150506001900390600052602060002090600c02016000909190919091506000820151816000019080519060200190611cb1929190612662565b506020820151816001015560408201518160020155606082015181600301556080820151816004015560a0820151816005015560c0820151816006015560e08201518160070155610100820151816008019080519060200190611d15929190612662565b50610120820151816009019080519060200190611d33929190612662565b5061014082015181600a015561016082015181600b01555050611d583360075461221f565b3373ffffffffffffffffffffffffffffffffffffffff167ffcc4266db41b3b637382c5db91cb25016683dc4e6abdb1603f988683ec7d8c32600754604051611da09190612c45565b60405180910390a260076000815480929190611dbb90613456565b9190505550505050505050505050505050565b6000600660009054906101000a900473ffffffffffffffffffffffffffffffffffffffff16905081600660006101000a81548173ffffffffffffffffffffffffffffffffffffffff021916908373ffffffffffffffffffffffffffffffffffffffff1602179055508173ffffffffffffffffffffffffffffffffffffffff168173ffffffffffffffffffffffffffffffffffffffff167f8be0079c531659141344cd1fd0a4f28419497f9722a3daafe3b4186f6b6457e060405160405180910390a35050565b8173ffffffffffffffffffffffffffffffffffffffff168373ffffffffffffffffffffffffffffffffffffffff161415611f03576040517f08c379a0000000000000000000000000000000000000000000000000000000008152600401611efa90613ad1565b60405180910390fd5b80600560008573ffffffffffffffffffffffffffffffffffffffff1673ffffffffffffffffffffffffffffffffffffffff16815260200190815260200160002060008473ffffffffffffffffffffffffffffffffffffffff1673ffffffffffffffffffffffffffffffffffffffff16815260200190815260200160002060006101000a81548160ff0219169083151502179055508173ffffffffffffffffffffffffffffffffffffffff168373ffffffffffffffffffffffffffffffffffffffff167f17307eab39ab6107e8899845ad3d59bd9653f200f220920489ca2b5937696c3183604051611ff491906127b9565b60405180910390a3505050565b61200c848484611996565b6120188484848461223d565b612057576040517f08c379a000000000000000000000000000000000000000000000000000000000815260040161204e90613b63565b60405180910390fd5b50505050565b606060405180602001604052806000815250905090565b606060008214156120bc576040518060400160405280600181526020017f300000000000000000000000000000000000000000000000000000000000000081525090506121d0565b600082905060005b600082146120ee5780806120d790613456565b915050600a826120e79190613bb2565b91506120c4565b60008167ffffffffffffffff81111561210a57612109612cbd565b5b6040519080825280601f01601f19166020018201604052801561213c5781602001600182028036833780820191505090505b5090505b600085146121c95760018261215591906139fb565b9150600a856121649190613be3565b60306121709190613a2f565b60f81b818381518110612186576121856133f8565b5b60200101907effffffffffffffffffffffffffffffffffffffffffffffffffffffffffffff1916908160001a905350600a856121c29190613bb2565b9450612140565b8093505050505b919050565b505050565b60008042336040516020016121f0929190613c7d565b6040516020818303038152906040528051906020012060001c905082816122179190613be3565b915050919050565b6122398282604051806020016040528060008152506123c5565b5050565b600061225e8473ffffffffffffffffffffffffffffffffffffffff16612420565b156123b8578373ffffffffffffffffffffffffffffffffffffffff1663150b7a026122876117f7565b8786866040518563ffffffff1660e01b81526004016122a99493929190613cfe565b6020604051808303816000875af19250505080156122e557506040513d601f19601f820116820180604052508101906122e29190613d5f565b60015b612368573d8060008114612315576040519150601f19603f3d011682016040523d82523d6000602084013e61231a565b606091505b50600081511415612360576040517f08c379a000000000000000000000000000000000000000000000000000000000815260040161235790613b63565b60405180910390fd5b805181602001fd5b63150b7a0260e01b7bffffffffffffffffffffffffffffffffffffffffffffffffffffffff1916817bffffffffffffffffffffffffffffffffffffffffffffffffffffffff1916149150506123bd565b600190505b949350505050565b6123cf8383612433565b6123dc600084848461223d565b61241b576040517f08c379a000000000000000000000000000000000000000000000000000000000815260040161241290613b63565b60405180910390fd5b505050565b600080823b905060008111915050919050565b600073ffffffffffffffffffffffffffffffffffffffff168273ffffffffffffffffffffffffffffffffffffffff1614156124a3576040517f08c379a000000000000000000000000000000000000000000000000000000000815260040161249a90613dd8565b60405180910390fd5b6124ac8161178b565b156124ec576040517f08c379a00000000000000000000000000000000000000000000000000000000081526004016124e390613e44565b60405180910390fd5b6124f8600083836121d5565b6001600360008473ffffffffffffffffffffffffffffffffffffffff1673ffffffffffffffffffffffffffffffffffffffff16815260200190815260200160002060008282546125489190613a2f565b92505081905550816002600083815260200190815260200160002060006101000a81548173ffffffffffffffffffffffffffffffffffffffff021916908373ffffffffffffffffffffffffffffffffffffffff160217905550808273ffffffffffffffffffffffffffffffffffffffff16600073ffffffffffffffffffffffffffffffffffffffff167fddf252ad1be2c89b69c2b068fc378daa952ba7f163c4a11628f55a4df523b3ef60405160405180910390a45050565b6040518061018001604052806060815260200160008152602001600081526020016000815260200160008152602001600081526020016000815260200160008152602001606081526020016060815260200160008152602001600081525090565b82805461266e90613210565b90600052602060002090601f01602090048101928261269057600085556126d7565b82601f106126a957805160ff19168380011785556126d7565b828001600101855582156126d7579182015b828111156126d65782518255916020019190600101906126bb565b5b5090506126e491906126e8565b5090565b5b808211156127015760008160009055506001016126e9565b5090565b6000604051905090565b600080fd5b600080fd5b60007fffffffff0000000000000000000000000000000000000000000000000000000082169050919050565b61274e81612719565b811461275957600080fd5b50565b60008135905061276b81612745565b92915050565b6000602082840312156127875761278661270f565b5b60006127958482850161275c565b91505092915050565b60008115159050919050565b6127b38161279e565b82525050565b60006020820190506127ce60008301846127aa565b92915050565b600081519050919050565b600082825260208201905092915050565b60005b8381101561280e5780820151818401526020810190506127f3565b8381111561281d576000848401525b50505050565b6000601f19601f8301169050919050565b600061283f826127d4565b61284981856127df565b93506128598185602086016127f0565b61286281612823565b840191505092915050565b600060208201905081810360008301526128878184612834565b905092915050565b6000819050919050565b6128a28161288f565b81146128ad57600080fd5b50565b6000813590506128bf81612899565b92915050565b6000602082840312156128db576128da61270f565b5b60006128e9848285016128b0565b91505092915050565b600073ffffffffffffffffffffffffffffffffffffffff82169050919050565b600061291d826128f2565b9050919050565b61292d81612912565b82525050565b60006020820190506129486000830184612924565b92915050565b61295781612912565b811461296257600080fd5b50565b6000813590506129748161294e565b92915050565b600080604083850312156129915761299061270f565b5b600061299f85828601612965565b92505060206129b0858286016128b0565b9150509250929050565b6000602082840312156129d0576129cf61270f565b5b60006129de84828501612965565b91505092915050565b600081519050919050565b600082825260208201905092915050565b6000819050602082019050919050565b600082825260208201905092915050565b6000612a2f826127d4565b612a398185612a13565b9350612a498185602086016127f0565b612a5281612823565b840191505092915050565b612a668161288f565b82525050565b6000610180830160008301518482036000860152612a8a8282612a24565b9150506020830151612a9f6020860182612a5d565b506040830151612ab26040860182612a5d565b506060830151612ac56060860182612a5d565b506080830151612ad86080860182612a5d565b5060a0830151612aeb60a0860182612a5d565b5060c0830151612afe60c0860182612a5d565b5060e0830151612b1160e0860182612a5d565b50610100830151848203610100860152612b2b8282612a24565b915050610120830151848203610120860152612b478282612a24565b915050610140830151612b5e610140860182612a5d565b50610160830151612b73610160860182612a5d565b508091505092915050565b6000612b8a8383612a6c565b905092915050565b6000602082019050919050565b6000612baa826129e7565b612bb481856129f2565b935083602082028501612bc685612a03565b8060005b85811015612c025784840389528151612be38582612b7e565b9450612bee83612b92565b925060208a01995050600181019050612bca565b50829750879550505050505092915050565b60006020820190508181036000830152612c2e8184612b9f565b905092915050565b612c3f8161288f565b82525050565b6000602082019050612c5a6000830184612c36565b92915050565b600080600060608486031215612c7957612c7861270f565b5b6000612c8786828701612965565b9350506020612c9886828701612965565b9250506040612ca9868287016128b0565b9150509250925092565b600080fd5b600080fd5b7f4e487b7100000000000000000000000000000000000000000000000000000000600052604160045260246000fd5b612cf582612823565b810181811067ffffffffffffffff82111715612d1457612d13612cbd565b5b80604052505050565b6000612d27612705565b9050612d338282612cec565b919050565b600067ffffffffffffffff821115612d5357612d52612cbd565b5b612d5c82612823565b9050602081019050919050565b82818337600083830152505050565b6000612d8b612d8684612d38565b612d1d565b905082815260208101848484011115612da757612da6612cb8565b5b612db2848285612d69565b509392505050565b600082601f830112612dcf57612dce612cb3565b5b8135612ddf848260208601612d78565b91505092915050565b60008060008060008060008060006101208a8c031215612e0b57612e0a61270f565b5b60008a013567ffffffffffffffff811115612e2957612e28612714565b5b612e358c828d01612dba565b9950506020612e468c828d016128b0565b9850506040612e578c828d016128b0565b9750506060612e688c828d016128b0565b9650506080612e798c828d016128b0565b95505060a0612e8a8c828d016128b0565b94505060c0612e9b8c828d016128b0565b93505060e08a013567ffffffffffffffff811115612ebc57612ebb612714565b5b612ec88c828d01612dba565b9250506101008a013567ffffffffffffffff811115612eea57612ee9612714565b5b612ef68c828d01612dba565b9150509295985092959850929598565b6000610180820190508181036000830152612f21818f612834565b9050612f30602083018e612c36565b612f3d604083018d612c36565b612f4a606083018c612c36565b612f57608083018b612c36565b612f6460a083018a612c36565b612f7160c0830189612c36565b612f7e60e0830188612c36565b818103610100830152612f918187612834565b9050818103610120830152612fa68186612834565b9050612fb6610140830185612c36565b612fc4610160830184612c36565b9d9c50505050505050505050505050565b6000612fe0826128f2565b9050919050565b612ff081612fd5565b82525050565b600060208201905061300b6000830184612fe7565b92915050565b61301a8161279e565b811461302557600080fd5b50565b60008135905061303781613011565b92915050565b600080604083850312156130545761305361270f565b5b600061306285828601612965565b925050602061307385828601613028565b9150509250929050565b600067ffffffffffffffff82111561309857613097612cbd565b5b6130a182612823565b9050602081019050919050565b60006130c16130bc8461307d565b612d1d565b9050828152602081018484840111156130dd576130dc612cb8565b5b6130e8848285612d69565b509392505050565b600082601f83011261310557613104612cb3565b5b81356131158482602086016130ae565b91505092915050565b600080600080608085870312156131385761313761270f565b5b600061314687828801612965565b945050602061315787828801612965565b9350506040613168878288016128b0565b925050606085013567ffffffffffffffff81111561318957613188612714565b5b613195878288016130f0565b91505092959194509250565b600080604083850312156131b8576131b761270f565b5b60006131c685828601612965565b92505060206131d785828601612965565b9150509250929050565b7f4e487b7100000000000000000000000000000000000000000000000000000000600052602260045260246000fd5b6000600282049050600182168061322857607f821691505b6020821081141561323c5761323b6131e1565b5b50919050565b7f4552433732313a20617070726f76656420717565727920666f72206e6f6e657860008201527f697374656e7420746f6b656e0000000000000000000000000000000000000000602082015250565b600061329e602c836127df565b91506132a982613242565b604082019050919050565b600060208201905081810360008301526132cd81613291565b9050919050565b7f4552433732313a20617070726f76616c20746f2063757272656e74206f776e6560008201527f7200000000000000000000000000000000000000000000000000000000000000602082015250565b60006133306021836127df565b915061333b826132d4565b604082019050919050565b6000602082019050818103600083015261335f81613323565b9050919050565b7f4552433732313a20617070726f76652063616c6c6572206973206e6f74206f7760008201527f6e6572206e6f7220617070726f76656420666f7220616c6c0000000000000000602082015250565b60006133c26038836127df565b91506133cd82613366565b604082019050919050565b600060208201905081810360008301526133f1816133b5565b9050919050565b7f4e487b7100000000000000000000000000000000000000000000000000000000600052603260045260246000fd5b7f4e487b7100000000000000000000000000000000000000000000000000000000600052601160045260246000fd5b60006134618261288f565b91507fffffffffffffffffffffffffffffffffffffffffffffffffffffffffffffffff82141561349457613493613427565b5b600182019050919050565b7f4552433732313a207472616e736665722063616c6c6572206973206e6f74206f60008201527f776e6572206e6f7220617070726f766564000000000000000000000000000000602082015250565b60006134fb6031836127df565b91506135068261349f565b604082019050919050565b6000602082019050818103600083015261352a816134ee565b9050919050565b7f4f776e61626c653a2063616c6c6572206973206e6f7420746865206f776e6572600082015250565b60006135676020836127df565b915061357282613531565b602082019050919050565b600060208201905081810360008301526135968161355a565b9050919050565b7f4552433732313a206f776e657220717565727920666f72206e6f6e657869737460008201527f656e7420746f6b656e0000000000000000000000000000000000000000000000602082015250565b60006135f96029836127df565b91506136048261359d565b604082019050919050565b60006020820190508181036000830152613628816135ec565b9050919050565b7f4552433732313a2062616c616e636520717565727920666f7220746865207a6560008201527f726f206164647265737300000000000000000000000000000000000000000000602082015250565b600061368b602a836127df565b91506136968261362f565b604082019050919050565b600060208201905081810360008301526136ba8161367e565b9050919050565b7f4552433732314d657461646174613a2055524920717565727920666f72206e6f60008201527f6e6578697374656e7420746f6b656e0000000000000000000000000000000000602082015250565b600061371d602f836127df565b9150613728826136c1565b604082019050919050565b6000602082019050818103600083015261374c81613710565b9050919050565b600081905092915050565b6000613769826127d4565b6137738185613753565b93506137838185602086016127f0565b80840191505092915050565b600061379b828561375e565b91506137a7828461375e565b91508190509392505050565b7f4f776e61626c653a206e6577206f776e657220697320746865207a65726f206160008201527f6464726573730000000000000000000000000000000000000000000000000000602082015250565b600061380f6026836127df565b915061381a826137b3565b604082019050919050565b6000602082019050818103600083015261383e81613802565b9050919050565b7f4552433732313a206f70657261746f7220717565727920666f72206e6f6e657860008201527f697374656e7420746f6b656e0000000000000000000000000000000000000000602082015250565b60006138a1602c836127df565b91506138ac82613845565b604082019050919050565b600060208201905081810360008301526138d081613894565b9050919050565b7f4552433732313a207472616e73666572206f6620746f6b656e2074686174206960008201527f73206e6f74206f776e0000000000000000000000000000000000000000000000602082015250565b60006139336029836127df565b915061393e826138d7565b604082019050919050565b6000602082019050818103600083015261396281613926565b9050919050565b7f4552433732313a207472616e7366657220746f20746865207a65726f2061646460008201527f7265737300000000000000000000000000000000000000000000000000000000602082015250565b60006139c56024836127df565b91506139d082613969565b604082019050919050565b600060208201905081810360008301526139f4816139b8565b9050919050565b6000613a068261288f565b9150613a118361288f565b925082821015613a2457613a23613427565b5b828203905092915050565b6000613a3a8261288f565b9150613a458361288f565b9250827fffffffffffffffffffffffffffffffffffffffffffffffffffffffffffffffff03821115613a7a57613a79613427565b5b828201905092915050565b7f4552433732313a20617070726f766520746f2063616c6c657200000000000000600082015250565b6000613abb6019836127df565b9150613ac682613a85565b602082019050919050565b60006020820190508181036000830152613aea81613aae565b9050919050565b7f4552433732313a207472616e7366657220746f206e6f6e20455243373231526560008201527f63656976657220696d706c656d656e7465720000000000000000000000000000602082015250565b6000613b4d6032836127df565b9150613b5882613af1565b604082019050919050565b60006020820190508181036000830152613b7c81613b40565b9050919050565b7f4e487b7100000000000000000000000000000000000000000000000000000000600052601260045260246000fd5b6000613bbd8261288f565b9150613bc88361288f565b925082613bd857613bd7613b83565b5b828204905092915050565b6000613bee8261288f565b9150613bf98361288f565b925082613c0957613c08613b83565b5b828206905092915050565b6000819050919050565b613c2f613c2a8261288f565b613c14565b82525050565b60008160601b9050919050565b6000613c4d82613c35565b9050919050565b6000613c5f82613c42565b9050919050565b613c77613c7282612912565b613c54565b82525050565b6000613c898285613c1e565b602082019150613c998284613c66565b6014820191508190509392505050565b600081519050919050565b600082825260208201905092915050565b6000613cd082613ca9565b613cda8185613cb4565b9350613cea8185602086016127f0565b613cf381612823565b840191505092915050565b6000608082019050613d136000830187612924565b613d206020830186612924565b613d2d6040830185612c36565b8181036060830152613d3f8184613cc5565b905095945050505050565b600081519050613d5981612745565b92915050565b600060208284031215613d7557613d7461270f565b5b6000613d8384828501613d4a565b91505092915050565b7f4552433732313a206d696e7420746f20746865207a65726f2061646472657373600082015250565b6000613dc26020836127df565b9150613dcd82613d8c565b602082019050919050565b60006020820190508181036000830152613df181613db5565b9050919050565b7f4552433732313a20746f6b656e20616c7265616479206d696e74656400000000600082015250565b6000613e2e601c836127df565b9150613e3982613df8565b602082019050919050565b60006020820190508181036000830152613e5d81613e21565b905091905056fea2646970667358221220bed4a3efd389c06dc8b35dc8cf0a5e171aec28bada172673d6fb4d462c636c2e64736f6c634300080a0033",
  "immutableReferences": {},
  "source": "// SPDX-License-Identifier: MIT\npragma solidity >=0.4.22 <0.9.0;\n\n\n// NFT \n\nimport \"../node_modules/@openzeppelin/contracts/token/ERC721/ERC721.sol\";\nimport \"../node_modules/@openzeppelin/contracts/access/Ownable.sol\";\n\ncontract CStoryNFT is ERC721, Ownable {\n\n     constructor(string memory _name, string memory _symbol)\n        ERC721(_name, _symbol)\n    {}\n\n    uint256 COUNTER;\n\n    uint256  public cost = 0.03 ether ;\n\n    address payable public buyer;\n\n    // PLANTILLA NFT \n\n  \n    struct TrajeNFT {\n       string Name;\n       uint256 id;\n       uint256 Str;\n       uint256 Dex;\n       uint256 Luk;\n       uint256 Int;\n       uint256 Wattk;\n       uint256 Mattk;\n       string Type;\n       string Class;\n       uint256 level;\n       uint256 rarity;\n    }\n\n     event newStoryN(address indexed owner, uint256 id);\n\n\n    TrajeNFT [] public TrajesNFT;\n\n\n    //random number function \n\n    function _createRandomNumber(uint256 _mod) internal view returns(uint256){\n\n        uint256 randomNum = uint256(keccak256(abi.encodePacked(block.timestamp, msg.sender)));\n        return randomNum % _mod;\n\n    }\n\n   /* function updateFee(uint256 _fee) external  onlyOwner(){\n        fee = _fee;\n    } */\n\n    //funcion de retiro del nft hacia la billetera\n\n    function withdraw()external payable onlyOwner(){\n\n        address payable _owner = payable(owner());\n        _owner.transfer(address(this).balance);\n\n    }\n\n\n    function _createNFT(string memory _name, uint256 _Str, uint256 _Dex, uint256 _Luk, uint256 _Int, uint256 _Wattk, uint256 _Mattk, string memory _Type, string memory _Class) internal {\n        \n        uint8 randRarity1 = uint8(_createRandomNumber(100));\n        //uint256 randDnA = uint256(_createRandomNumber(10**16));\n        uint256 randId = uint256(_createRandomNumber(10000));\n        \n        //Crear NFT y GUARDARLO UN ARRAY \n        \n        TrajeNFT memory newTrajeNFT = TrajeNFT(_name, randId, _Str, _Dex, _Luk, _Int, _Wattk, _Mattk, _Type, _Class, 1, randRarity1);\n        TrajesNFT.push(newTrajeNFT);\n        \n\n        // MINTEAR NFT\n\n        _safeMint(msg.sender, COUNTER);\n        emit newStoryN(msg.sender, COUNTER);\n        COUNTER++;\n    }\n    \n    function createRandomNFT(string memory _name,uint256 _Str, uint256 _Dex, uint256 _Luk, uint256 _Int, uint256 _Wattk, uint256 _Mattk, string memory _Type, string memory _Class) public payable{\n    \n        _createNFT(_name, _Str, _Dex, _Luk, _Int, _Wattk, _Mattk, _Type, _Class);\n    } \n\n    //GETTER NFT\n\n    function getTrajeNFT() public view returns(TrajeNFT[] memory){\n\n        return TrajesNFT;\n\n    }\n\n    function getOwnerTrajeNFT(address _owner) public view returns (TrajeNFT[] memory){\n        \n        TrajeNFT[] memory result = new TrajeNFT[](balanceOf(_owner)); \n        uint256 counter1 = 0;\n        for (uint256 i = 0 ; i < TrajesNFT.length; i ++){\n            if(ownerOf(i) == _owner) {\n                result[counter1] = TrajesNFT[i];\n                counter1 ++;\n            }   \n        }\n        return result ;\n\n    }\n\n\n\n    // ACTIONS \n\n   /*  function levelUpNFT (uint256 _StoryId) public {\n        require(ownerOf(_StoryId) == msg.sender);\n        StoryNFT storage storyNFT = StoryNFTs[_StoryId];\n        storyNFT.level++;\n\n    } */\n\n}",
  "sourcePath": "/Users/sau/Desktop/contract/contract/Versiones/v3/nftgame/contracts/CStoryNFT.sol",
  "compiler": {
    "name": "solc",
    "version": "0.8.10+commit.fc410830.Emscripten.clang"
  },
  "schemaVersion": "3.4.4",
  "updatedAt": "2022-02-07T16:14:17.253Z",
  "networkType": "ethereum",
  "devdoc": {
    "kind": "dev",
    "methods": {
      "approve(address,uint256)": {
        "details": "See {IERC721-approve}."
      },
      "balanceOf(address)": {
        "details": "See {IERC721-balanceOf}."
      },
      "getApproved(uint256)": {
        "details": "See {IERC721-getApproved}."
      },
      "isApprovedForAll(address,address)": {
        "details": "See {IERC721-isApprovedForAll}."
      },
      "name()": {
        "details": "See {IERC721Metadata-name}."
      },
      "owner()": {
        "details": "Returns the address of the current owner."
      },
      "ownerOf(uint256)": {
        "details": "See {IERC721-ownerOf}."
      },
      "renounceOwnership()": {
        "details": "Leaves the contract without owner. It will not be possible to call `onlyOwner` functions anymore. Can only be called by the current owner. NOTE: Renouncing ownership will leave the contract without an owner, thereby removing any functionality that is only available to the owner."
      },
      "safeTransferFrom(address,address,uint256)": {
        "details": "See {IERC721-safeTransferFrom}."
      },
      "safeTransferFrom(address,address,uint256,bytes)": {
        "details": "See {IERC721-safeTransferFrom}."
      },
      "setApprovalForAll(address,bool)": {
        "details": "See {IERC721-setApprovalForAll}."
      },
      "supportsInterface(bytes4)": {
        "details": "See {IERC165-supportsInterface}."
      },
      "symbol()": {
        "details": "See {IERC721Metadata-symbol}."
      },
      "tokenURI(uint256)": {
        "details": "See {IERC721Metadata-tokenURI}."
      },
      "transferFrom(address,address,uint256)": {
        "details": "See {IERC721-transferFrom}."
      },
      "transferOwnership(address)": {
        "details": "Transfers ownership of the contract to a new account (`newOwner`). Can only be called by the current owner."
      }
    },
    "version": 1
  },
  "userdoc": {
    "kind": "user",
    "methods": {},
    "version": 1
  }
}